{
  "_format": "hh-sol-artifact-1",
  "contractName": "Todo",
  "sourceName": "contracts/Todo.sol",
  "abi": [
    {
      "inputs": [],
      "stateMutability": "nonpayable",
      "type": "constructor"
    },
    {
      "inputs": [
        {
          "internalType": "string",
          "name": "_content",
          "type": "string"
        }
      ],
      "name": "createTask",
      "outputs": [],
      "stateMutability": "nonpayable",
      "type": "function"
    },
    {
      "inputs": [
        {
          "internalType": "uint256",
          "name": "_id",
          "type": "uint256"
        }
      ],
      "name": "deleteTask",
      "outputs": [],
      "stateMutability": "nonpayable",
      "type": "function"
    },
    {
      "inputs": [
        {
          "internalType": "uint256",
          "name": "_id",
          "type": "uint256"
        },
        {
          "internalType": "string",
          "name": "_content",
          "type": "string"
        }
      ],
      "name": "editTask",
      "outputs": [],
      "stateMutability": "nonpayable",
      "type": "function"
    },
    {
      "inputs": [],
      "name": "getAllTasks",
      "outputs": [
        {
          "components": [
            {
              "internalType": "uint256",
              "name": "id",
              "type": "uint256"
            },
            {
              "internalType": "string",
              "name": "content",
              "type": "string"
            },
            {
              "internalType": "bool",
              "name": "completed",
              "type": "bool"
            }
          ],
          "internalType": "struct Todo.Task[]",
          "name": "",
          "type": "tuple[]"
        }
      ],
      "stateMutability": "view",
      "type": "function"
    },
    {
      "inputs": [],
      "name": "taskCount",
      "outputs": [
        {
          "internalType": "uint256",
          "name": "",
          "type": "uint256"
        }
      ],
      "stateMutability": "view",
      "type": "function"
    },
    {
      "inputs": [
        {
          "internalType": "uint256",
          "name": "",
          "type": "uint256"
        }
      ],
      "name": "tasks",
      "outputs": [
        {
          "internalType": "uint256",
          "name": "id",
          "type": "uint256"
        },
        {
          "internalType": "string",
          "name": "content",
          "type": "string"
        },
        {
          "internalType": "bool",
          "name": "completed",
          "type": "bool"
        }
      ],
      "stateMutability": "view",
      "type": "function"
    },
    {
      "inputs": [
        {
          "internalType": "uint256",
          "name": "_id",
          "type": "uint256"
        }
      ],
      "name": "toggleCompleted",
      "outputs": [],
      "stateMutability": "nonpayable",
      "type": "function"
    }
  ],
  "bytecode": "0x6080604052348015600f57600080fd5b506000600181905550611239806100276000396000f3fe608060405234801561001057600080fd5b506004361061007d5760003560e01c8063779900b41161005b578063779900b4146100d65780638d977672146100f4578063b6cb58a514610126578063cb7bd995146101445761007d565b8063111002aa14610082578063455f50241461009e578063560f3192146100ba575b600080fd5b61009c600480360381019061009791906108af565b610160565b005b6100b860048036038101906100b3919061092e565b610208565b005b6100d460048036038101906100cf919061092e565b6102bf565b005b6100de610492565b6040516100eb9190610b16565b60405180910390f35b61010e6004803603810190610109919061092e565b6105a8565b60405161011d93929190610ba0565b60405180910390f35b61012e610677565b60405161013b9190610bde565b60405180910390f35b61015e60048036038101906101599190610bf9565b61067d565b005b6000604051806060016040528060015481526020018381526020016000151581525090806001815401808255809150506001900390600052602060002090600302016000909190919091506000820151816000015560208201518160010190816101ca9190610e61565b5060408201518160020160006101000a81548160ff02191690831515021790555050506001600081548092919061020090610f62565b919050555050565b600154811061024c576040517f08c379a000000000000000000000000000000000000000000000000000000000815260040161024390610ff6565b60405180910390fd5b600081815481106102605761025f611016565b5b906000526020600020906003020160020160009054906101000a900460ff16156000828154811061029457610293611016565b5b906000526020600020906003020160020160006101000a81548160ff02191690831515021790555050565b6001548110610303576040517f08c379a00000000000000000000000000000000000000000000000000000000081526004016102fa90610ff6565b60405180910390fd5b6000818154811061031757610316611016565b5b906000526020600020906003020160008082016000905560018201600061033e91906106f8565b6002820160006101000a81549060ff0219169055505060008190505b600160008054905061036c9190611045565b81101561041f5760006001826103829190611079565b8154811061039357610392611016565b5b9060005260206000209060030201600082815481106103b5576103b4611016565b5b906000526020600020906003020160008201548160000155600182018160010190816103e191906110c3565b506002820160009054906101000a900460ff168160020160006101000a81548160ff021916908315150217905550905050808060010191505061035a565b506000805480610432576104316111ab565b5b600190038181906000526020600020906003020160008082016000905560018201600061045f91906106f8565b6002820160006101000a81549060ff0219169055505090556001600081548092919061048a906111da565b919050555050565b60606000805480602002602001604051908101604052809291908181526020016000905b8282101561059f5783829060005260206000209060030201604051806060016040529081600082015481526020016001820180546104f390610c84565b80601f016020809104026020016040519081016040528092919081815260200182805461051f90610c84565b801561056c5780601f106105415761010080835404028352916020019161056c565b820191906000526020600020905b81548152906001019060200180831161054f57829003601f168201915b505050505081526020016002820160009054906101000a900460ff161515151581525050815260200190600101906104b6565b50505050905090565b600081815481106105b857600080fd5b90600052602060002090600302016000915090508060000154908060010180546105e190610c84565b80601f016020809104026020016040519081016040528092919081815260200182805461060d90610c84565b801561065a5780601f1061062f5761010080835404028352916020019161065a565b820191906000526020600020905b81548152906001019060200180831161063d57829003601f168201915b5050505050908060020160009054906101000a900460ff16905083565b60015481565b60015482106106c1576040517f08c379a00000000000000000000000000000000000000000000000000000000081526004016106b890610ff6565b60405180910390fd5b80600083815481106106d6576106d5611016565b5b906000526020600020906003020160010190816106f39190610e61565b505050565b50805461070490610c84565b6000825580601f106107165750610735565b601f0160209004906000526020600020908101906107349190610738565b5b50565b5b80821115610751576000816000905550600101610739565b5090565b6000604051905090565b600080fd5b600080fd5b600080fd5b600080fd5b6000601f19601f8301169050919050565b7f4e487b7100000000000000000000000000000000000000000000000000000000600052604160045260246000fd5b6107bc82610773565b810181811067ffffffffffffffff821117156107db576107da610784565b5b80604052505050565b60006107ee610755565b90506107fa82826107b3565b919050565b600067ffffffffffffffff82111561081a57610819610784565b5b61082382610773565b9050602081019050919050565b82818337600083830152505050565b600061085261084d846107ff565b6107e4565b90508281526020810184848401111561086e5761086d61076e565b5b610879848285610830565b509392505050565b600082601f83011261089657610895610769565b5b81356108a684826020860161083f565b91505092915050565b6000602082840312156108c5576108c461075f565b5b600082013567ffffffffffffffff8111156108e3576108e2610764565b5b6108ef84828501610881565b91505092915050565b6000819050919050565b61090b816108f8565b811461091657600080fd5b50565b60008135905061092881610902565b92915050565b6000602082840312156109445761094361075f565b5b600061095284828501610919565b91505092915050565b600081519050919050565b600082825260208201905092915050565b6000819050602082019050919050565b610990816108f8565b82525050565b600081519050919050565b600082825260208201905092915050565b60005b838110156109d05780820151818401526020810190506109b5565b60008484015250505050565b60006109e782610996565b6109f181856109a1565b9350610a018185602086016109b2565b610a0a81610773565b840191505092915050565b60008115159050919050565b610a2a81610a15565b82525050565b6000606083016000830151610a486000860182610987565b5060208301518482036020860152610a6082826109dc565b9150506040830151610a756040860182610a21565b508091505092915050565b6000610a8c8383610a30565b905092915050565b6000602082019050919050565b6000610aac8261095b565b610ab68185610966565b935083602082028501610ac885610977565b8060005b85811015610b045784840389528151610ae58582610a80565b9450610af083610a94565b925060208a01995050600181019050610acc565b50829750879550505050505092915050565b60006020820190508181036000830152610b308184610aa1565b905092915050565b610b41816108f8565b82525050565b600082825260208201905092915050565b6000610b6382610996565b610b6d8185610b47565b9350610b7d8185602086016109b2565b610b8681610773565b840191505092915050565b610b9a81610a15565b82525050565b6000606082019050610bb56000830186610b38565b8181036020830152610bc78185610b58565b9050610bd66040830184610b91565b949350505050565b6000602082019050610bf36000830184610b38565b92915050565b60008060408385031215610c1057610c0f61075f565b5b6000610c1e85828601610919565b925050602083013567ffffffffffffffff811115610c3f57610c3e610764565b5b610c4b85828601610881565b9150509250929050565b7f4e487b7100000000000000000000000000000000000000000000000000000000600052602260045260246000fd5b60006002820490506001821680610c9c57607f821691505b602082108103610caf57610cae610c55565b5b50919050565b60008190508160005260206000209050919050565b60006020601f8301049050919050565b600082821b905092915050565b600060088302610d177fffffffffffffffffffffffffffffffffffffffffffffffffffffffffffffffff82610cda565b610d218683610cda565b95508019841693508086168417925050509392505050565b6000819050919050565b6000610d5e610d59610d54846108f8565b610d39565b6108f8565b9050919050565b6000819050919050565b610d7883610d43565b610d8c610d8482610d65565b848454610ce7565b825550505050565b600090565b610da1610d94565b610dac818484610d6f565b505050565b5b81811015610dd057610dc5600082610d99565b600181019050610db2565b5050565b601f821115610e1557610de681610cb5565b610def84610cca565b81016020851015610dfe578190505b610e12610e0a85610cca565b830182610db1565b50505b505050565b600082821c905092915050565b6000610e3860001984600802610e1a565b1980831691505092915050565b6000610e518383610e27565b9150826002028217905092915050565b610e6a82610996565b67ffffffffffffffff811115610e8357610e82610784565b5b610e8d8254610c84565b610e98828285610dd4565b600060209050601f831160018114610ecb5760008415610eb9578287015190505b610ec38582610e45565b865550610f2b565b601f198416610ed986610cb5565b60005b82811015610f0157848901518255600182019150602085019450602081019050610edc565b86831015610f1e5784890151610f1a601f891682610e27565b8355505b6001600288020188555050505b505050505050565b7f4e487b7100000000000000000000000000000000000000000000000000000000600052601160045260246000fd5b6000610f6d826108f8565b91507fffffffffffffffffffffffffffffffffffffffffffffffffffffffffffffffff8203610f9f57610f9e610f33565b5b600182019050919050565b7f496e76616c6964207461736b2049440000000000000000000000000000000000600082015250565b6000610fe0600f83610b47565b9150610feb82610faa565b602082019050919050565b6000602082019050818103600083015261100f81610fd3565b9050919050565b7f4e487b7100000000000000000000000000000000000000000000000000000000600052603260045260246000fd5b6000611050826108f8565b915061105b836108f8565b925082820390508181111561107357611072610f33565b5b92915050565b6000611084826108f8565b915061108f836108f8565b92508282019050808211156110a7576110a6610f33565b5b92915050565b6000815490506110bc81610c84565b9050919050565b8181036110d15750506111a9565b6110da826110ad565b67ffffffffffffffff8111156110f3576110f2610784565b5b6110fd8254610c84565b611108828285610dd4565b6000601f8311600181146111375760008415611125578287015490505b61112f8582610e45565b8655506111a2565b601f19841661114587610cb5565b965061115086610cb5565b60005b8281101561117857848901548255600182019150600185019450602081019050611153565b868310156111955784890154611191601f891682610e27565b8355505b6001600288020188555050505b5050505050505b565b7f4e487b7100000000000000000000000000000000000000000000000000000000600052603160045260246000fd5b60006111e5826108f8565b9150600082036111f8576111f7610f33565b5b60018203905091905056fea26469706673582212203aaac0c7dd71717b0287d6d530764f91270b57cdad8aed5bdaeb82d601ceac6664736f6c634300081b0033",
  "linkReferences": {},
  "deployedLinkReferences": {}
}